:100000000C94FA000C9417010C9417010C9417012E
:100010000C9417010C9417010C9417010C94C20254
:100020000C9417010C948D020C94C9070C940308CE
:100030000C9417010C9417010C9417010C941701E0
:100040000C9417010C9417010C9417010C941701D0
:100050000C9417010C9479020C9417010C9417015D
:100060000C9417010C9476030C9417010C9417014F
:100070000C9417010C9417010C9417010C941701A0
:100080000C9417010C9417010C9417010C94170190
:100090000C9417010C9417010C9417010C94170180
:1000A0000C9417010C9417010C9417016907610750
:1000B0005907510749074107390731072907210720
:1000C0001907110709070107F906F106E906E10614
:1000D000D906D106C906C106B906B106A906A10608
:1000E00099069106890681067906710669066106F8
:1000F00059065106490641063906310629062106E8
:100100001906110609060106F905F105E905E105DB
:10011000D905D105C905C105B905B105A905A105CF
:100120009905910589058105790571056905000124
:100130000000D701120002000094014300030000F8
:100140009001040103090478011602030904660101
:10015000100303090458010C0C0331003200330072
:1001600034003500000010034D00610069006E008E
:100170004D006F00640000001603530069006D001D
:100180006D006F0020005300610061006E000000F0
:100190000403090409024300020100C032090400FB
:1001A00000010202010005240010010524010101E3
:1001B00004240206052406000107058203100040FE
:1001C00009040100020A00000007050302400000C4
:1001D000070584024000001201000202000010C066
:1001E000167A040001010203010001C112018036E8
:1001F0000181360011241FBECFEFDAE0DEBFCDBF94
:1002000011E0A0E0B1E0ECE3FAE102C005900D924C
:10021000A036B107D9F721E0A0E6B1E001C01D92F8
:10022000A739B207E1F70E946B090C941C0D0C94DE
:100230000000EF92FF920F931F93CF93DF93EC0197
:1002400081B392E0892781BB611107C090ECE92E50
:1002500093E0F92E03E014E01BC080E090E00E94E0
:10026000250C182FCE010E94ED09212F30E08217B6
:10027000930709F037C1CE01EC01019628812A339A
:10028000D9F7EC0186EDE82E83E0F82E09E114E0C1
:1002900068E071E0CE010E945A09882341F0CE0146
:1002A00002960E94ED09682F80E090E01EC06BE08E
:1002B00071E0CE010E945209882349F080E090E06D
:1002C0000E94250C1F928F938DE091E05CC063E14A
:1002D00071E0CE010E945A09882379F0CE0102967E
:1002E0000E94ED09682F81E090E0DF91CF911F918E
:1002F0000F91FF90EF900C942D0C66E171E0CE0110
:100300000E945A09882341F0CE0102960E94ED090D
:10031000892BF1F05D9AE6C069E171E0CE010E949F
:100320005A09882341F0CE0102960E94ED09892BDB
:10033000C9F45C98D7C06CE171E0CE010E9452090B
:10034000882341F05C985D9A80E29EE40197F1F782
:100350005D98C8C06EE171E0CE010E945209882309
:1003600019F05D985C9ABEC060E271E0CE010E9417
:1003700052098823B9F08CB186FB882780F91F9237
:100380008F9383E291E09F938F9387E691E09F9311
:100390008F930E94310A0F900F900F900F900F9043
:1003A0000F9069C069E271E0CE010E945A0988236A
:1003B00069F1CE0101960E94ED098130910541F06D
:1003C0008230910551F429B1269531E0232702C0EE
:1003D00029B12095217030E002C02FEF3FEF3F930D
:1003E0002F939F938F938BE291E09F938F9387E658
:1003F00091E09F938F930E94310A8DB79EB7089624
:100400000FB6F8949EBF0FBE8DBF35C062E371E09A
:10041000CE010E945A09882391F1CE0102960E94D2
:10042000ED098130910529F08230910561F426B102
:1004300001C023B1332727FD3095232F221F222708
:10044000221F30E002C02FEF3FEF3F932F939F9387
:100450008F9385E391E09F938F9387E691E09F933D
:100460008F930E94310A8DB79EB708960FB6F89405
:100470009EBF0FBE8DBF87E691E0F8012CC06DE3F3
:1004800071E0CE010E945A09882339F0CE0102960C
:100490000E94ED098093980025C060E471E0CE01D0
:1004A0000E945A09882359F0CE0102960E94ED0954
:1004B00021E0892B09F420E02093000113C063E4BC
:1004C00071E0CE010E945209882319F01092600158
:1004D00009C0CE01F701DF91CF911F910F91FF90DD
:1004E000EF900994DF91CF911F910F91FF90EF90C2
:1004F00008951F920F920FB60F9211248F9381B31C
:10050000805881BB809160018F5F809360018F91E3
:100510000F900FBE0F901F9018951F920F920FB65D
:100520000F9211242F933F934F935F936F937F9379
:100530008F939F93AF93BF93EF93FF931C9911C039
:100540005C9881E090E00E94250C882351F065E4DE
:1005500071E087E691E00E94140A87E691E00E942C
:100560003C04FF91EF91BF91AF919F918F917F914B
:100570006F915F914F913F912F910F900FBE0F9010
:100580001F9018951F920F920FB60F9211242F9360
:100590003F934F935F936F937F938F939F93AF930B
:1005A000BF93EF93FF9381B390E1892781BB81E0F3
:1005B00090E00E94250C8823D1F08CB186FB88271F
:1005C00080F91F928F9383E291E09F938F9387E648
:1005D00091E09F938F930E94310A87E691E00E94F9
:1005E0003C040F900F900F900F900F900F90FF9181
:1005F000EF91BF91AF919F918F917F916F915F919B
:100600004F913F912F910F900FBE0F901F90189513
:100610008D3031F091E08A3009F090E0892F01C0EF
:1006200081E08170089590EE980F81E09F3508F089
:1006300080E008958AB1886C8AB952985E9A5F9872
:1006400083E390E09093CD008093CC0088E9809381
:10065000C9008EE08093CA000895CF93DF93EC0128
:100660008991882319F00E94B704FACFDF91CF91C6
:100670000895FC012191CF01222339F03091C80067
:1006800035FFFCCF2093CE00F4CF80E29EE40197AB
:10069000F1F70895EF92FF920F931F93CF93DF939B
:1006A0001F92CDB7DEB7082F7C018E2D801B8617D9
:1006B000A8F469830E946704182F0E9408036981C7
:1006C000882321F0F7011082862F08C080EE810F69
:1006D0008F3578F7F70111937F01E7CF0F90DF9106
:1006E000CF911F910F91FF90EF9008951F920F925D
:1006F0000FB60F9211242F933F934F935F936F93F5
:100700007F938F939F93AF93BF93CF93DF93EF9399
:10071000FF9381B3D1E08D2781BBC091CE008C2F98
:100720000E940803882359F0E0916201F0E0E95744
:10073000FE4F108210926201D09361010EC080EED4
:100740008C0F8F3550F4E091620181E08E0F809321
:100750006201F0E0E957FE4FC083FF91EF91DF9116
:10076000CF91BF91AF919F918F917F916F915F9149
:100770004F913F912F910F900FBE0F901F901895A2
:100780009F938F938CE491E09F938F9387E791E001
:100790009F938F930E94310A0F900F900F900F90AC
:1007A0000F900F9087E791E00C942D03CF93DF9388
:1007B000EC0180E090E00E94250CDF93CF931F9224
:1007C0008F9389E491E09F938F9387E791E09F93C4
:1007D0008F930E94310A8DB79EB708960FB6F89492
:1007E0009EBF0FBE8DBF87E791E0DF91CF910C9444
:1007F0003903CF93DF93EC010E94C003CE01DF9158
:10080000CF910C94D6039F938F9380E591E09F93B3
:100810008F9387E791E09F938F930E94310A0F9007
:100820000F900F900F900F900F9087E791E00C942E
:100830002D03CF93DF93EC0180E090E00E94250C24
:10084000DF93CF931F928F9386E591E09F938F93D1
:1008500087E791E09F938F930E94310A8DB79EB7EF
:1008600008960FB6F8949EBF0FBE8DBF87E791E044
:10087000DF91CF910C943903CF93DF93EC010E9469
:100880000304CE01DF91CF910C9419048091E8000C
:1008900080FFFCCF089581E08093D70080EA8093A9
:1008A000D80082E189BD09B400FEFDCF80E98093C4
:1008B000D8001092E00010926601109263018CE063
:1008C0008093E200789408958091660108959FB71F
:1008D000F89480916601882369F083E08093E900B1
:1008E0002BE68091E80085FD09C082FF03C02093BC
:1008F000E800F7CF9FBF8FEF9FEF08958091F10041
:100900002091E80025FD03C02BE62093E8009FBF5F
:1009100090E008952FB7F89480916601811102C08C
:1009200080E010C083E08093E9008091F2008111A3
:1009300009C09091E80092FFF3CF95FDF1CF9BE6BF
:100940009093E8002FBF089580916601882371F08D
:100950008FB7F89493E09093E9002BE69091E8002C
:1009600095FF03C02093E800F9CF8FBF08959091C1
:100970006601992371F09FB7F89424E02093E90071
:1009800020916401222349F02091E80025FD03C055
:100990009FBF8FEF0895109264012091E400275EBD
:1009A00034E04091E80045FD12C09FBF9091E40003
:1009B000921304C081E080936401EBCF90916601B3
:1009C000992339F39FB7F8943093E900EACF8093E5
:1009D000F1008091E80085FD03C08AE38093E80080
:1009E00085E0809365019FBF80E008959091660146
:1009F0009923D1F09FB7F89424E02093E900209147
:100A0000E80025FD02C09FBF0FC08093F1008091D8
:100A1000E80085FD03C08AE38093E80085E08093C9
:100A200065019FBF80E008958FEF0895EF92FF92D8
:100A30001F93CF93DF937C01CB012091660122238A
:100A400071F0AFB7F89424E02093E900209164019D
:100A5000222349F02091E80025FD03C0AFBF8FEFAE
:100A600042C210926401B4E0C0E4DAE315E00097FA
:100A700009F438C22091E400275E3091E80035FD8A
:100A800012C0AFBF3091E400321304C081E0809304
:100A90006401E5CF30916601332309F3AFB7F894D1
:100AA000B093E900EACF2091F2004C2F421B242F93
:100AB00030E08217930708F4482F841B910950E017
:100AC0004134510508F0FDC14A5A5F4FFA010C94B8
:100AD000E709F70120812093F10097012F5F3F4F35
:100AE0007901F70120812093F10097012F5F3F4F9B
:100AF0007901F70120812093F10097012F5F3F4F8B
:100B00007901F70120812093F10097012F5F3F4F7A
:100B10007901F70120812093F10097012F5F3F4F6A
:100B20007901F70120812093F10097012F5F3F4F5A
:100B30007901F70120812093F10097012F5F3F4F4A
:100B40007901F70120812093F10097012F5F3F4F3A
:100B50007901F70120812093F10097012F5F3F4F2A
:100B60007901F70120812093F10097012F5F3F4F1A
:100B70007901F70120812093F10097012F5F3F4F0A
:100B80007901F70120812093F10097012F5F3F4FFA
:100B90007901F70120812093F10097012F5F3F4FEA
:100BA0007901F70120812093F10097012F5F3F4FDA
:100BB0007901F70120812093F10097012F5F3F4FCA
:100BC0007901F70120812093F10097012F5F3F4FBA
:100BD0007901F70120812093F10097012F5F3F4FAA
:100BE0007901F70120812093F10097012F5F3F4F9A
:100BF0007901F70120812093F10097012F5F3F4F8A
:100C00007901F70120812093F10097012F5F3F4F79
:100C10007901F70120812093F10097012F5F3F4F69
:100C20007901F70120812093F10097012F5F3F4F59
:100C30007901F70120812093F10097012F5F3F4F49
:100C40007901F70120812093F10097012F5F3F4F39
:100C50007901F70120812093F10097012F5F3F4F29
:100C60007901F70120812093F10097012F5F3F4F19
:100C70007901F70120812093F10097012F5F3F4F09
:100C80007901F70120812093F10097012F5F3F4FF9
:100C90007901F70120812093F10097012F5F3F4FE9
:100CA0007901F70120812093F10097012F5F3F4FD9
:100CB0007901F70120812093F10097012F5F3F4FC9
:100CC0007901F70120812093F10097012F5F3F4FB9
:100CD0007901F70120812093F10097012F5F3F4FA9
:100CE0007901F70120812093F10097012F5F3F4F99
:100CF0007901F70120812093F10097012F5F3F4F89
:100D00007901F70120812093F10097012F5F3F4F78
:100D10007901F70120812093F10097012F5F3F4F68
:100D20007901F70120812093F10097012F5F3F4F58
:100D30007901F70120812093F10097012F5F3F4F48
:100D40007901F70120812093F10097012F5F3F4F38
:100D50007901F70120812093F10097012F5F3F4F28
:100D60007901F70120812093F10097012F5F3F4F18
:100D70007901F70120812093F10097012F5F3F4F08
:100D80007901F70120812093F10097012F5F3F4FF8
:100D90007901F70120812093F10097012F5F3F4FE8
:100DA0007901F70120812093F10097012F5F3F4FD8
:100DB0007901F70120812093F10097012F5F3F4FC8
:100DC0007901F70120812093F10097012F5F3F4FB8
:100DD0007901F70120812093F10097012F5F3F4FA8
:100DE0007901F70120812093F10097012F5F3F4F98
:100DF0007901F70120812093F10097012F5F3F4F88
:100E00007901F70120812093F10097012F5F3F4F77
:100E10007901F70120812093F10097012F5F3F4F67
:100E20007901F70120812093F10097012F5F3F4F57
:100E30007901F70120812093F10097012F5F3F4F47
:100E40007901F70120812093F10097012F5F3F4F37
:100E50007901F70120812093F10097012F5F3F4F27
:100E60007901F70120812093F10097012F5F3F4F17
:100E70007901F70120812093F10097012F5F3F4F07
:100E80007901F70120812093F10097012F5F3F4FF7
:100E90007901F70120812093F10097012F5F3F4FE7
:100EA0007901F70120812093F10097012F5F3F4FD7
:100EB0007901F70120812093F10097012F5F3F4FC7
:100EC0007901F70120812093F10097012F5F3F4FB7
:100ED00079012091E80025FFD093E8001093650187
:100EE000AFBFC5CD80E0DF91CF911F91FF90EF9014
:100EF00008958FB7F89490916501992341F094E09B
:100F00009093E9009AE39093E800109265018FBFF7
:100F10000895609101017091020180910301909107
:100F200004010895809105010895809106010895B6
:100F30008091070108958091630108959FB7F89407
:100F400020916601222339F022E02093E9002091CC
:100F5000E80025FD03C09FBF8FEF089521EA20938D
:100F6000F10020E22093F1001092F1001092F100C4
:100F70001092F1001092F10021E02093F100109204
:100F8000F1008093F1008AE38093E8009FBF80E046
:100F900008951F920F920FB60F9211248F939F9373
:100FA0008091E1001092E10083FF11C01092E900EE
:100FB00091E09093EB001092EC0092E19093ED00A1
:100FC00098E09093F000109266011092630182FF06
:100FD00013C080916601882379F080916501882390
:100FE00059F0815080936501811106C084E080939F
:100FF000E9008AE38093E8009F918F910F900FBEE4
:101000000F901F9018951F920F920FB60F921124F8
:10101000EF92FF920F931F932F933F934F935F9302
:101020006F937F938F939F93AF93BF93EF93FF93B0
:10103000CF93DF931F92CDB7DEB71092E900809176
:10104000E80083FF14C19091F1008091F10030918C
:10105000F1002091F100E32EF12CF22A0091F10031
:101060002091F10010E0122B2091F1006091F1002D
:1010700032EF3093E800863009F046C036E08EE269
:1010800091E0FC01459154914E155F0539F4FC0146
:101090003296459154914017510721F007963150EF
:1010A00081F7E5C0FC01349645915491FC013696D8
:1010B000849130E0362B2F3F310519F010F02FEFDF
:1010C00030E0281708F4822F3EEF9091E800292F96
:1010D0002570D9F392FDCEC0982F813108F090E1B0
:1010E000FA01292F222331F064916093F1002150FD
:1010F0003196F8CF490F511D891B3093E8008111BB
:10110000E4CF903111F3B6C0853051F48EEF809367
:10111000E8000E9446048E2D80688093E300AAC0F8
:10112000893059F5911180C0E092660110926301F7
:10113000109265018EEF8093E80041E089EE91E026
:101140004093E9009C012F5F3F4FFC015491509365
:10115000EB00552359F0F90124912093EC009C01F8
:101160002D5F3F4F319684918093ED004F5F453066
:1011700011F0C901E5CF8EE175C0883051F4903887
:1011800009F052C00E944604809166018093F100EC
:1011900047C0813279F4913A09F046C00E94460472
:1011A000E1E0F1E081918093F10081E0E830F8071F
:1011B000C9F736C0803299F49132B1F58091E800D8
:1011C00082FFFCCFE1E0F1E08091F100819381E0CA
:1011D000E830F807C9F78BEF8093E80021C082322E
:1011E00041F4913209F043C0E09263010E94460449
:1011F00017C0811119C099830E94460499819238C1
:1012000051F40093E9008091EB0085FB882780F979
:101210001092E90001C080E08093F1001092F1008B
:101220008EEF8093E80026C0282F2D7F2130F9F41F
:101230009230E9F4EF28D9F40F779FEF900F9430B4
:10124000B0F49EEF9093E8000093E900833079F0CA
:1012500089E18093EB0081E090E0002E01C0880FCF
:101260000A94EAF78093EA001092EA0003C081E250
:101270008093EB000F90DF91CF91FF91EF91BF91A1
:10128000AF919F918F917F916F915F914F913F911E
:101290002F911F910F91FF90EF900F900FBE0F9025
:1012A0001F9018950E940B0A21E0892B09F020E07D
:1012B000822F0895FB0101900020E9F7AF01415012
:1012C0005109461B570B0E941B0A21E0892B09F08C
:1012D00020E0822F0895CF93DF93CDB7DEB76097DC
:1012E0000FB6F894DEBF0FBECDBF80E880936100DB
:1012F0001092610085BF85BF80B3836F80BB81B3CF
:10130000836F81BB559A549A5D985C98249880911C
:10131000680081608093680080916B008061809399
:101320006B008AB18C7F8AB96E9880E180936A00E5
:10133000EE9A27983F980E944B040E941A0380E17E
:1013400097E220E931E0F9013197F1F70197009731
:10135000D1F782E084BD95E095BD80936E008AEF61
:1013600087BD16BC3E9A81E8809390008CE0809304
:10137000910010929800789480910001882351F098
:1013800080916001843630F05C985D9810929800EE
:10139000109260010E948A04882369F060E1CE0106
:1013A00001960E944A03803139F760E0CE01019630
:1013B0000E941901E1CF809161018823E9F261E087
:1013C00087E891E00E94190110926101D5CFEE0FDC
:1013D000FF1F0590F491E02D0994FC0188279927BF
:1013E000E89421912032E9F3293010F02E30C8F32F
:1013F0002B3241F02D3239F4689404C00E94290A3E
:10140000820F911D219120532A30C0F31EF4909534
:1014100081959F4F0895FB01DC018D91019080190A
:101420000110D9F3990B0895FB01DC0101900D9295
:101430000020E1F70895FB01DC014150504030F0FD
:101440008D910190801919F40020B9F7881B990B30
:1014500008957AE0979F902D879F802D910D1124FC
:101460000895AEE0B0E0E7E3FAE00C94F30C0D89E8
:101470001E8986E08C831A8309838FEF9FE79E8302
:101480008D83AE01475E5F4F6F89788DCE010196E7
:101490000E94530AEF81F885E00FF11F10822E960B
:1014A000E4E00C940F0DACE0B0E0E9E5FAE00C9458
:1014B000E50C7C016B018A01FC0117821682838195
:1014C00081FFBDC1CE0101964C01F7019381F60168
:1014D00093FD859193FF81916F01882309F4ABC13E
:1014E000853239F493FD859193FF81916F018532A7
:1014F00029F4B70190E00E94550CE7CF512C312C14
:1015000020E02032A0F48B3269F030F4803259F0C0
:10151000833269F420612CC08D3239F0803339F484
:10152000216026C02260246023C0286021C027FDDE
:1015300027C030ED380F3A3078F426FF06C0FAE0C5
:101540005F9E300D1124532E13C08AE0389E300D5B
:101550001124332E20620CC08E3221F426FD6BC183
:10156000206406C08C3611F4206802C0883641F42D
:10157000F60193FD859193FF81916F018111C1CF98
:10158000982F9F7D9554933028F40C5F1F4FFFE3F5
:10159000F9830DC0833631F0833771F0833509F05C
:1015A0005BC022C0F801808189830E5F1F4F4424F5
:1015B0004394512C540115C03801F2E06F0E711C98
:1015C000F801A080B18026FF03C0652D70E002C045
:1015D0006FEF7FEFC5012C870E944A0C2C0183011D
:1015E0002C852F77222E17C03801F2E06F0E711C68
:1015F000F801A080B18026FF03C0652D70E002C015
:101600006FEF7FEFC5012C870E943F0C2C012C85CA
:101610002068222E830123FC1BC0832D90E04816F6
:101620005906B0F4B70180E290E00E94550C3A945C
:10163000F4CFF50127FC859127FE81915F01B70169
:1016400090E00E94550C31103A94F1E04F1A510885
:101650004114510471F7E5C0843611F0893639F52B
:10166000F80127FF07C060817181828193810C5F3F
:101670001F4F08C060817181882777FD8095982F62
:101680000E5F1F4F2F76B22E97FF09C09095809561
:10169000709561957F4F8F4F9F4F2068B22E2AE043
:1016A00030E0A4010E94870CA82EA81844C08537FA
:1016B00029F42F7EB22E2AE030E025C0F22FF97FE8
:1016C000BF2E8F36C1F018F4883579F0B4C080375A
:1016D00019F0883721F0AFC02F2F2061B22EB4FE51
:1016E0000DC08B2D8460B82E09C024FF0AC09F2F27
:1016F0009660B92E06C028E030E005C020E130E059
:1017000002C020E132E0F801B7FE07C060817181BC
:10171000828193810C5F1F4F06C06081718180E0E0
:1017200090E00E5F1F4FA4010E94870CA82EA818FE
:10173000FB2DFF77BF2EB6FE0BC02B2D2E7FA514E1
:1017400050F4B4FE0AC0B2FC08C02B2D2E7E05C09A
:101750007A2C2B2D03C07A2C01C0752C24FF0DC0D0
:10176000FE01EA0DF11D8081803311F4297E09C04C
:1017700022FF06C07394739404C0822F867809F008
:10178000739423FD13C020FF06C05A2C731418F461
:10179000530C5718732C731468F4B70180E290E06F
:1017A0002C870E94550C73942C85F5CF731410F47C
:1017B000371801C0312C24FF12C0B70180E390E03C
:1017C0002C870E94550C2C8522FF17C021FF03C0D7
:1017D00088E590E002C088E790E0B7010CC0822F56
:1017E000867859F021FD02C080E201C08BE227FD1E
:1017F0008DE2B70190E00E94550CA51438F4B701B2
:1018000080E390E00E94550C5A94F7CFAA94F4011B
:10181000EA0DF11D8081B70190E00E94550CA110E6
:10182000F5CF332009F451CEB70180E290E00E9459
:10183000550C3A94F6CFF7018681978102C08FEF5D
:101840009FEF2C96E2E10C94010DF999FECF92BD29
:1018500081BDF89A992780B50895262FF999FECF72
:1018600092BD81BDF89A019700B4021639F01FBAF3
:1018700020BD0FB6F894FA9AF99A0FBE0895FC01AC
:101880000590615070400110D8F7809590958E0FAB
:101890009F1F0895FC016150704001900110D8F71E
:1018A000809590958E0F9F1F08950F931F93CF9350
:1018B000DF93182F092FEB018B8181FD03C08FEF80
:1018C0009FEF20C082FF10C04E815F812C813D813F
:1018D000421753077CF4E881F9819F012F5F3F4F46
:1018E00039832883108306C0E885F985812F0995FF
:1018F000892B29F72E813F812F5F3F4F3F832E8316
:10190000812F902FDF91CF911F910F910895FA01B0
:10191000AA27283051F1203181F1E8946F936E7F2E
:101920006E5F7F4F8F4F9F4FAF4FB1E03ED0B4E01F
:101930003CD0670F781F891F9A1FA11D680F791F60
:101940008A1F911DA11D6A0F711D811D911DA11D71
:1019500020D009F468943F912AE0269F1124301981
:10196000305D3193DEF6CF010895462F4770405D1C
:101970004193B3E00FD0C9F7F6CF462F4F70405DCB
:101980004A3318F0495D31FD4052419302D0A9F726
:10199000EACFB4E0A6959795879577956795BA9520
:1019A000C9F700976105710508959B01AC010A2EE6
:1019B00006945795479537952795BA95C9F7620FBD
:1019C000731F841F951FA01D08952F923F924F9261
:1019D0005F926F927F928F929F92AF92BF92CF92BF
:1019E000DF92EF92FF920F931F93CF93DF93CDB7C8
:1019F000DEB7CA1BDB0B0FB6F894DEBF0FBECDBF40
:101A000009942A88398848885F846E847D848C8410
:101A10009B84AA84B984C884DF80EE80FD800C8119
:101A20001B81AA81B981CE0FD11D0FB6F894DEBFFC
:0C1A30000FBECDBFED010895F894FFCF6C
:101A3C000100E100000000086964003F0069643A9D
:101A4C002564006972006B6F00636F006B006300AC
:101A5C00626C00626C3A25640062006225643A256F
:101A6C006400696F00696F25643A256400646D0039
:101A7C006673007000633A300025643A25730A00DF
:101A8C003C25733E0A003C25643A25733E0A00004F
:00000001FF
